:107E000011248FE598E09EBF8DBF84B714BE81FF1B
:107E1000D7D085E08EBD82E08BB988E18AB986E84B
:107E200080BD80E189B98EE0B7D0BF9A96E020E3AB
:107E30003CEF44E03DBD2CBD48BF08B602FEFDCF7F
:107E400088B3805888BBA8959150A1F7EE24FF24F1
:107E5000AA24A394B5E0CB2EA1E1BA2EF3E0DF2E45
:107E600094D0813461F491D0082F9AD0023829F14E
:107E7000013811F485E001C083E083D07FC08234F3
:107E800011F484E103C0853419F485E091D076C003
:107E9000853579F47AD0E82EFF2477D0082F10E0CA
:107EA000102F00270E291F29000F111F79D07801EC
:107EB00065C0863521F484E07BD080E0DECF843657
:107EC00009F040C062D061D0082F5FD080E0E81692
:107ED00080E7F80618F4F701D7BEE895C0E0D1E0D6
:107EE00054D089930C17E1F7F0E0EF16F0E7FF06A6
:107EF00018F0F701D7BEE89553D007B600FCFDCFC8
:107F0000A701A0E0B1E02C9130E011968C9111977F
:107F100090E0982F8827822B932B1296FA010C0160
:107F2000A7BEE89511244E5F5F4FF1E0A038BF0770
:107F300051F7F701C7BEE89507B600FCFDCFB7BE05
:107F4000E8951CC0843761F420D01FD0082F1DD0C5
:107F500027D0F70185917F0114D00150D1F70EC0D1
:107F6000853739F41DD08EE10CD085E90AD082E046
:107F700084CF813511F488E00FD012D080E101D098
:107F80006FCF5D9BFECF8CB908955F9BFECF5C9950
:107F900001C0A8958CB1089598E191BD81BD089567
:107FA000F4DF803219F088E0F7DFFFCF84E1E9CF1A
:107FB0001F93182FEADF1150E9F7F2DF1F910895A0
:0C7FC000282E80E0E9DFEE27FF2709945F
:027FFE0000057C
:0400000300007E007B
:00000001FF
